{
  "contractName": "ItemToken",
  "abi": [
    {
      "inputs": [],
      "stateMutability": "nonpayable",
      "type": "constructor"
    },
    {
      "anonymous": false,
      "inputs": [
        {
          "indexed": true,
          "internalType": "address",
          "name": "owner",
          "type": "address"
        },
        {
          "indexed": true,
          "internalType": "address",
          "name": "approved",
          "type": "address"
        },
        {
          "indexed": true,
          "internalType": "uint256",
          "name": "tokenId",
          "type": "uint256"
        }
      ],
      "name": "Approval",
      "type": "event"
    },
    {
      "anonymous": false,
      "inputs": [
        {
          "indexed": true,
          "internalType": "address",
          "name": "owner",
          "type": "address"
        },
        {
          "indexed": true,
          "internalType": "address",
          "name": "operator",
          "type": "address"
        },
        {
          "indexed": false,
          "internalType": "bool",
          "name": "approved",
          "type": "bool"
        }
      ],
      "name": "ApprovalForAll",
      "type": "event"
    },
    {
      "anonymous": false,
      "inputs": [
        {
          "indexed": false,
          "internalType": "address",
          "name": "account",
          "type": "address"
        }
      ],
      "name": "Paused",
      "type": "event"
    },
    {
      "anonymous": false,
      "inputs": [
        {
          "indexed": true,
          "internalType": "bytes32",
          "name": "role",
          "type": "bytes32"
        },
        {
          "indexed": true,
          "internalType": "bytes32",
          "name": "previousAdminRole",
          "type": "bytes32"
        },
        {
          "indexed": true,
          "internalType": "bytes32",
          "name": "newAdminRole",
          "type": "bytes32"
        }
      ],
      "name": "RoleAdminChanged",
      "type": "event"
    },
    {
      "anonymous": false,
      "inputs": [
        {
          "indexed": true,
          "internalType": "bytes32",
          "name": "role",
          "type": "bytes32"
        },
        {
          "indexed": true,
          "internalType": "address",
          "name": "account",
          "type": "address"
        },
        {
          "indexed": true,
          "internalType": "address",
          "name": "sender",
          "type": "address"
        }
      ],
      "name": "RoleGranted",
      "type": "event"
    },
    {
      "anonymous": false,
      "inputs": [
        {
          "indexed": true,
          "internalType": "bytes32",
          "name": "role",
          "type": "bytes32"
        },
        {
          "indexed": true,
          "internalType": "address",
          "name": "account",
          "type": "address"
        },
        {
          "indexed": true,
          "internalType": "address",
          "name": "sender",
          "type": "address"
        }
      ],
      "name": "RoleRevoked",
      "type": "event"
    },
    {
      "anonymous": false,
      "inputs": [
        {
          "indexed": true,
          "internalType": "address",
          "name": "from",
          "type": "address"
        },
        {
          "indexed": true,
          "internalType": "address",
          "name": "to",
          "type": "address"
        },
        {
          "indexed": true,
          "internalType": "uint256",
          "name": "tokenId",
          "type": "uint256"
        }
      ],
      "name": "Transfer",
      "type": "event"
    },
    {
      "anonymous": false,
      "inputs": [
        {
          "indexed": false,
          "internalType": "address",
          "name": "account",
          "type": "address"
        }
      ],
      "name": "Unpaused",
      "type": "event"
    },
    {
      "inputs": [],
      "name": "DEFAULT_ADMIN_ROLE",
      "outputs": [
        {
          "internalType": "bytes32",
          "name": "",
          "type": "bytes32"
        }
      ],
      "stateMutability": "view",
      "type": "function",
      "constant": true
    },
    {
      "inputs": [],
      "name": "MINTER_ROLE",
      "outputs": [
        {
          "internalType": "bytes32",
          "name": "",
          "type": "bytes32"
        }
      ],
      "stateMutability": "view",
      "type": "function",
      "constant": true
    },
    {
      "inputs": [],
      "name": "PAUSER_ROLE",
      "outputs": [
        {
          "internalType": "bytes32",
          "name": "",
          "type": "bytes32"
        }
      ],
      "stateMutability": "view",
      "type": "function",
      "constant": true
    },
    {
      "inputs": [
        {
          "internalType": "address",
          "name": "to",
          "type": "address"
        },
        {
          "internalType": "uint256",
          "name": "tokenId",
          "type": "uint256"
        }
      ],
      "name": "approve",
      "outputs": [],
      "stateMutability": "nonpayable",
      "type": "function"
    },
    {
      "inputs": [
        {
          "internalType": "address",
          "name": "owner",
          "type": "address"
        }
      ],
      "name": "balanceOf",
      "outputs": [
        {
          "internalType": "uint256",
          "name": "",
          "type": "uint256"
        }
      ],
      "stateMutability": "view",
      "type": "function",
      "constant": true
    },
    {
      "inputs": [
        {
          "internalType": "uint256",
          "name": "tokenId",
          "type": "uint256"
        }
      ],
      "name": "burn",
      "outputs": [],
      "stateMutability": "nonpayable",
      "type": "function"
    },
    {
      "inputs": [
        {
          "internalType": "uint256",
          "name": "tokenId",
          "type": "uint256"
        }
      ],
      "name": "getApproved",
      "outputs": [
        {
          "internalType": "address",
          "name": "",
          "type": "address"
        }
      ],
      "stateMutability": "view",
      "type": "function",
      "constant": true
    },
    {
      "inputs": [
        {
          "internalType": "bytes32",
          "name": "role",
          "type": "bytes32"
        }
      ],
      "name": "getRoleAdmin",
      "outputs": [
        {
          "internalType": "bytes32",
          "name": "",
          "type": "bytes32"
        }
      ],
      "stateMutability": "view",
      "type": "function",
      "constant": true
    },
    {
      "inputs": [
        {
          "internalType": "bytes32",
          "name": "role",
          "type": "bytes32"
        },
        {
          "internalType": "uint256",
          "name": "index",
          "type": "uint256"
        }
      ],
      "name": "getRoleMember",
      "outputs": [
        {
          "internalType": "address",
          "name": "",
          "type": "address"
        }
      ],
      "stateMutability": "view",
      "type": "function",
      "constant": true
    },
    {
      "inputs": [
        {
          "internalType": "bytes32",
          "name": "role",
          "type": "bytes32"
        }
      ],
      "name": "getRoleMemberCount",
      "outputs": [
        {
          "internalType": "uint256",
          "name": "",
          "type": "uint256"
        }
      ],
      "stateMutability": "view",
      "type": "function",
      "constant": true
    },
    {
      "inputs": [
        {
          "internalType": "bytes32",
          "name": "role",
          "type": "bytes32"
        },
        {
          "internalType": "address",
          "name": "account",
          "type": "address"
        }
      ],
      "name": "grantRole",
      "outputs": [],
      "stateMutability": "nonpayable",
      "type": "function"
    },
    {
      "inputs": [
        {
          "internalType": "bytes32",
          "name": "role",
          "type": "bytes32"
        },
        {
          "internalType": "address",
          "name": "account",
          "type": "address"
        }
      ],
      "name": "hasRole",
      "outputs": [
        {
          "internalType": "bool",
          "name": "",
          "type": "bool"
        }
      ],
      "stateMutability": "view",
      "type": "function",
      "constant": true
    },
    {
      "inputs": [
        {
          "internalType": "address",
          "name": "owner",
          "type": "address"
        },
        {
          "internalType": "address",
          "name": "operator",
          "type": "address"
        }
      ],
      "name": "isApprovedForAll",
      "outputs": [
        {
          "internalType": "bool",
          "name": "",
          "type": "bool"
        }
      ],
      "stateMutability": "view",
      "type": "function",
      "constant": true
    },
    {
      "inputs": [
        {
          "internalType": "address",
          "name": "to",
          "type": "address"
        }
      ],
      "name": "mint",
      "outputs": [],
      "stateMutability": "nonpayable",
      "type": "function"
    },
    {
      "inputs": [],
      "name": "name",
      "outputs": [
        {
          "internalType": "string",
          "name": "",
          "type": "string"
        }
      ],
      "stateMutability": "view",
      "type": "function",
      "constant": true
    },
    {
      "inputs": [
        {
          "internalType": "uint256",
          "name": "tokenId",
          "type": "uint256"
        }
      ],
      "name": "ownerOf",
      "outputs": [
        {
          "internalType": "address",
          "name": "",
          "type": "address"
        }
      ],
      "stateMutability": "view",
      "type": "function",
      "constant": true
    },
    {
      "inputs": [],
      "name": "pause",
      "outputs": [],
      "stateMutability": "nonpayable",
      "type": "function"
    },
    {
      "inputs": [],
      "name": "paused",
      "outputs": [
        {
          "internalType": "bool",
          "name": "",
          "type": "bool"
        }
      ],
      "stateMutability": "view",
      "type": "function",
      "constant": true
    },
    {
      "inputs": [
        {
          "internalType": "bytes32",
          "name": "role",
          "type": "bytes32"
        },
        {
          "internalType": "address",
          "name": "account",
          "type": "address"
        }
      ],
      "name": "renounceRole",
      "outputs": [],
      "stateMutability": "nonpayable",
      "type": "function"
    },
    {
      "inputs": [
        {
          "internalType": "bytes32",
          "name": "role",
          "type": "bytes32"
        },
        {
          "internalType": "address",
          "name": "account",
          "type": "address"
        }
      ],
      "name": "revokeRole",
      "outputs": [],
      "stateMutability": "nonpayable",
      "type": "function"
    },
    {
      "inputs": [
        {
          "internalType": "address",
          "name": "from",
          "type": "address"
        },
        {
          "internalType": "address",
          "name": "to",
          "type": "address"
        },
        {
          "internalType": "uint256",
          "name": "tokenId",
          "type": "uint256"
        }
      ],
      "name": "safeTransferFrom",
      "outputs": [],
      "stateMutability": "nonpayable",
      "type": "function"
    },
    {
      "inputs": [
        {
          "internalType": "address",
          "name": "from",
          "type": "address"
        },
        {
          "internalType": "address",
          "name": "to",
          "type": "address"
        },
        {
          "internalType": "uint256",
          "name": "tokenId",
          "type": "uint256"
        },
        {
          "internalType": "bytes",
          "name": "_data",
          "type": "bytes"
        }
      ],
      "name": "safeTransferFrom",
      "outputs": [],
      "stateMutability": "nonpayable",
      "type": "function"
    },
    {
      "inputs": [
        {
          "internalType": "address",
          "name": "operator",
          "type": "address"
        },
        {
          "internalType": "bool",
          "name": "approved",
          "type": "bool"
        }
      ],
      "name": "setApprovalForAll",
      "outputs": [],
      "stateMutability": "nonpayable",
      "type": "function"
    },
    {
      "inputs": [
        {
          "internalType": "bytes4",
          "name": "interfaceId",
          "type": "bytes4"
        }
      ],
      "name": "supportsInterface",
      "outputs": [
        {
          "internalType": "bool",
          "name": "",
          "type": "bool"
        }
      ],
      "stateMutability": "view",
      "type": "function",
      "constant": true
    },
    {
      "inputs": [],
      "name": "symbol",
      "outputs": [
        {
          "internalType": "string",
          "name": "",
          "type": "string"
        }
      ],
      "stateMutability": "view",
      "type": "function",
      "constant": true
    },
    {
      "inputs": [
        {
          "internalType": "uint256",
          "name": "index",
          "type": "uint256"
        }
      ],
      "name": "tokenByIndex",
      "outputs": [
        {
          "internalType": "uint256",
          "name": "",
          "type": "uint256"
        }
      ],
      "stateMutability": "view",
      "type": "function",
      "constant": true
    },
    {
      "inputs": [
        {
          "internalType": "address",
          "name": "owner",
          "type": "address"
        },
        {
          "internalType": "uint256",
          "name": "index",
          "type": "uint256"
        }
      ],
      "name": "tokenOfOwnerByIndex",
      "outputs": [
        {
          "internalType": "uint256",
          "name": "",
          "type": "uint256"
        }
      ],
      "stateMutability": "view",
      "type": "function",
      "constant": true
    },
    {
      "inputs": [
        {
          "internalType": "uint256",
          "name": "tokenId",
          "type": "uint256"
        }
      ],
      "name": "tokenURI",
      "outputs": [
        {
          "internalType": "string",
          "name": "",
          "type": "string"
        }
      ],
      "stateMutability": "view",
      "type": "function",
      "constant": true
    },
    {
      "inputs": [],
      "name": "totalSupply",
      "outputs": [
        {
          "internalType": "uint256",
          "name": "",
          "type": "uint256"
        }
      ],
      "stateMutability": "view",
      "type": "function",
      "constant": true
    },
    {
      "inputs": [
        {
          "internalType": "address",
          "name": "from",
          "type": "address"
        },
        {
          "internalType": "address",
          "name": "to",
          "type": "address"
        },
        {
          "internalType": "uint256",
          "name": "tokenId",
          "type": "uint256"
        }
      ],
      "name": "transferFrom",
      "outputs": [],
      "stateMutability": "nonpayable",
      "type": "function"
    },
    {
      "inputs": [],
      "name": "unpause",
      "outputs": [],
      "stateMutability": "nonpayable",
      "type": "function"
    },
    {
      "inputs": [
        {
          "internalType": "address",
          "name": "to",
          "type": "address"
        }
      ],
      "name": "award",
      "outputs": [],
      "stateMutability": "nonpayable",
      "type": "function"
    }
  ],
  "bytecode": "0x60806040523480156200001157600080fd5b506040518060400160405280600981526020017f4974656d546f6b656e00000000000000000000000000000000000000000000008152506040518060400160405280600281526020017f49540000000000000000000000000000000000000000000000000000000000008152506040518060400160405280601181526020017f687474703a2f2f6c6f63616c686f73742f00000000000000000000000000000081525082828160029080519060200190620000ce92919062000463565b508060039080519060200190620000e792919062000463565b5050506000600c60006101000a81548160ff02191690831515021790555080600e90805190602001906200011d92919062000463565b50620001426000801b62000136620001cd60201b60201c565b620001d560201b60201c565b620001837f9f2df0fed2c77648de5860a4cc508cd0818c85b8b8a1ab4ceeef8d981c8956a662000177620001cd60201b60201c565b620001d560201b60201c565b620001c47f65d7a28e3265b37a6474929f336521b332c1681b933f6cb9f3376673440d862a620001b8620001cd60201b60201c565b620001d560201b60201c565b50505062000578565b600033905090565b620001ec82826200021d60201b6200133d1760201c565b6200021881600160008581526020019081526020016000206200023360201b6200134b1790919060201c565b505050565b6200022f82826200026b60201b60201c565b5050565b600062000263836000018373ffffffffffffffffffffffffffffffffffffffff1660001b6200035c60201b60201c565b905092915050565b6200027d8282620003d660201b60201c565b6200035857600160008084815260200190815260200160002060000160008373ffffffffffffffffffffffffffffffffffffffff1673ffffffffffffffffffffffffffffffffffffffff16815260200190815260200160002060006101000a81548160ff021916908315150217905550620002fd620001cd60201b60201c565b73ffffffffffffffffffffffffffffffffffffffff168173ffffffffffffffffffffffffffffffffffffffff16837f2f8788117e7eff1d82e926ec794901d17c78024a50270940304540a733656f0d60405160405180910390a45b5050565b60006200037083836200044060201b60201c565b620003cb578260000182908060018154018082558091505060019003906000526020600020016000909190919091505582600001805490508360010160008481526020019081526020016000208190555060019050620003d0565b600090505b92915050565b600080600084815260200190815260200160002060000160008373ffffffffffffffffffffffffffffffffffffffff1673ffffffffffffffffffffffffffffffffffffffff16815260200190815260200160002060009054906101000a900460ff16905092915050565b600080836001016000848152602001908152602001600020541415905092915050565b828054620004719062000513565b90600052602060002090601f016020900481019282620004955760008555620004e1565b82601f10620004b057805160ff1916838001178555620004e1565b82800160010185558215620004e1579182015b82811115620004e0578251825591602001919060010190620004c3565b5b509050620004f09190620004f4565b5090565b5b808211156200050f576000816000905550600101620004f5565b5090565b600060028204905060018216806200052c57607f821691505b6020821081141562000543576200054262000549565b5b50919050565b7f4e487b7100000000000000000000000000000000000000000000000000000000600052602260045260246000fd5b6146ee80620005886000396000f3fe608060405234801561001057600080fd5b50600436106101f05760003560e01c80636a6278421161010f578063b88d4fde116100a2578063d547741f11610071578063d547741f146105c9578063e63ab1e9146105e5578063e985e9c514610603578063fbdd25e414610633576101f0565b8063b88d4fde1461052f578063c87b56dd1461054b578063ca15c8731461057b578063d5391393146105ab576101f0565b806391d14854116100de57806391d14854146104a757806395d89b41146104d7578063a217fddf146104f5578063a22cb46514610513576101f0565b80636a6278421461042157806370a082311461043d5780638456cb591461046d5780639010d07c14610477576101f0565b80632f745c591161018757806342966c681161015657806342966c68146103875780634f6ccce7146103a35780635c975abb146103d35780636352211e146103f1576101f0565b80632f745c591461031557806336568abe146103455780633f4ba83a1461036157806342842e0e1461036b576101f0565b806318160ddd116101c357806318160ddd1461028f57806323b872dd146102ad578063248a9ca3146102c95780632f2ff15d146102f9576101f0565b806301ffc9a7146101f557806306fdde0314610225578063081812fc14610243578063095ea7b314610273575b600080fd5b61020f600480360381019061020a9190613187565b61064f565b60405161021c919061371d565b60405180910390f35b61022d610661565b60405161023a9190613753565b60405180910390f35b61025d600480360381019061025891906131d9565b6106f3565b60405161026a91906136b6565b60405180910390f35b61028d600480360381019061028891906130aa565b610778565b005b610297610890565b6040516102a49190613ad5565b60405180910390f35b6102c760048036038101906102c29190612fa4565b61089d565b005b6102e360048036038101906102de91906130e6565b6108fd565b6040516102f09190613738565b60405180910390f35b610313600480360381019061030e919061310f565b61091c565b005b61032f600480360381019061032a91906130aa565b610950565b60405161033c9190613ad5565b60405180910390f35b61035f600480360381019061035a919061310f565b6109f5565b005b610369610a29565b005b61038560048036038101906103809190612fa4565b610aa3565b005b6103a1600480360381019061039c91906131d9565b610ac3565b005b6103bd60048036038101906103b891906131d9565b610b1f565b6040516103ca9190613ad5565b60405180910390f35b6103db610bb6565b6040516103e8919061371d565b60405180910390f35b61040b600480360381019061040691906131d9565b610bcd565b60405161041891906136b6565b60405180910390f35b61043b60048036038101906104369190612f3f565b610c7f565b005b61045760048036038101906104529190612f3f565b610d0f565b6040516104649190613ad5565b60405180910390f35b610475610dc7565b005b610491600480360381019061048c919061314b565b610e41565b60405161049e91906136b6565b60405180910390f35b6104c160048036038101906104bc919061310f565b610e70565b6040516104ce919061371d565b60405180910390f35b6104df610eda565b6040516104ec9190613753565b60405180910390f35b6104fd610f6c565b60405161050a9190613738565b60405180910390f35b61052d6004803603810190610528919061306e565b610f73565b005b61054960048036038101906105449190612ff3565b6110f4565b005b610565600480360381019061056091906131d9565b611156565b6040516105729190613753565b60405180910390f35b610595600480360381019061059091906130e6565b6111fd565b6040516105a29190613ad5565b60405180910390f35b6105b3611221565b6040516105c09190613738565b60405180910390f35b6105e360048036038101906105de919061310f565b611245565b005b6105ed611279565b6040516105fa9190613738565b60405180910390f35b61061d60048036038101906106189190612f68565b61129d565b60405161062a919061371d565b60405180910390f35b61064d60048036038101906106489190612f3f565b611331565b005b600061065a8261137b565b9050919050565b60606002805461067090613d04565b80601f016020809104026020016040519081016040528092919081815260200182805461069c90613d04565b80156106e95780601f106106be576101008083540402835291602001916106e9565b820191906000526020600020905b8154815290600101906020018083116106cc57829003601f168201915b5050505050905090565b60006106fe826113f5565b61073d576040517f08c379a000000000000000000000000000000000000000000000000000000000815260040161073490613995565b60405180910390fd5b6006600083815260200190815260200160002060009054906101000a900473ffffffffffffffffffffffffffffffffffffffff169050919050565b600061078382610bcd565b90508073ffffffffffffffffffffffffffffffffffffffff168373ffffffffffffffffffffffffffffffffffffffff1614156107f4576040517f08c379a00000000000000000000000000000000000000000000000000000000081526004016107eb906139f5565b60405180910390fd5b8073ffffffffffffffffffffffffffffffffffffffff16610813611461565b73ffffffffffffffffffffffffffffffffffffffff16148061084257506108418161083c611461565b61129d565b5b610881576040517f08c379a000000000000000000000000000000000000000000000000000000000815260040161087890613915565b60405180910390fd5b61088b8383611469565b505050565b6000600a80549050905090565b6108ae6108a8611461565b82611522565b6108ed576040517f08c379a00000000000000000000000000000000000000000000000000000000081526004016108e490613a15565b60405180910390fd5b6108f8838383611600565b505050565b6000806000838152602001908152602001600020600101549050919050565b610926828261185c565b61094b816001600085815260200190815260200160002061134b90919063ffffffff16565b505050565b600061095b83610d0f565b821061099c576040517f08c379a0000000000000000000000000000000000000000000000000000000008152600401610993906137f5565b60405180910390fd5b600860008473ffffffffffffffffffffffffffffffffffffffff1673ffffffffffffffffffffffffffffffffffffffff168152602001908152602001600020600083815260200190815260200160002054905092915050565b6109ff82826118c2565b610a24816001600085815260200190815260200160002061194590919063ffffffff16565b505050565b610a5a7f65d7a28e3265b37a6474929f336521b332c1681b933f6cb9f3376673440d862a610a55611461565b610e70565b610a99576040517f08c379a0000000000000000000000000000000000000000000000000000000008152600401610a9090613a95565b60405180910390fd5b610aa1611975565b565b610abe838383604051806020016040528060008152506110f4565b505050565b610ad4610ace611461565b82611522565b610b13576040517f08c379a0000000000000000000000000000000000000000000000000000000008152600401610b0a90613a75565b60405180910390fd5b610b1c81611a17565b50565b6000610b29610890565b8210610b6a576040517f08c379a0000000000000000000000000000000000000000000000000000000008152600401610b6190613a35565b60405180910390fd5b600a8281548110610ba4577f4e487b7100000000000000000000000000000000000000000000000000000000600052603260045260246000fd5b90600052602060002001549050919050565b6000600c60009054906101000a900460ff16905090565b6000806004600084815260200190815260200160002060009054906101000a900473ffffffffffffffffffffffffffffffffffffffff169050600073ffffffffffffffffffffffffffffffffffffffff168173ffffffffffffffffffffffffffffffffffffffff161415610c76576040517f08c379a0000000000000000000000000000000000000000000000000000000008152600401610c6d90613955565b60405180910390fd5b80915050919050565b610cb07f9f2df0fed2c77648de5860a4cc508cd0818c85b8b8a1ab4ceeef8d981c8956a6610cab611461565b610e70565b610cef576040517f08c379a0000000000000000000000000000000000000000000000000000000008152600401610ce690613a55565b60405180910390fd5b610d0281610cfd600d611b28565b611b36565b610d0c600d611d04565b50565b60008073ffffffffffffffffffffffffffffffffffffffff168273ffffffffffffffffffffffffffffffffffffffff161415610d80576040517f08c379a0000000000000000000000000000000000000000000000000000000008152600401610d7790613935565b60405180910390fd5b600560008373ffffffffffffffffffffffffffffffffffffffff1673ffffffffffffffffffffffffffffffffffffffff168152602001908152602001600020549050919050565b610df87f65d7a28e3265b37a6474929f336521b332c1681b933f6cb9f3376673440d862a610df3611461565b610e70565b610e37576040517f08c379a0000000000000000000000000000000000000000000000000000000008152600401610e2e90613855565b60405180910390fd5b610e3f611d1a565b565b6000610e688260016000868152602001908152602001600020611dbd90919063ffffffff16565b905092915050565b600080600084815260200190815260200160002060000160008373ffffffffffffffffffffffffffffffffffffffff1673ffffffffffffffffffffffffffffffffffffffff16815260200190815260200160002060009054906101000a900460ff16905092915050565b606060038054610ee990613d04565b80601f0160208091040260200160405190810160405280929190818152602001828054610f1590613d04565b8015610f625780601f10610f3757610100808354040283529160200191610f62565b820191906000526020600020905b815481529060010190602001808311610f4557829003601f168201915b5050505050905090565b6000801b81565b610f7b611461565b73ffffffffffffffffffffffffffffffffffffffff168273ffffffffffffffffffffffffffffffffffffffff161415610fe9576040517f08c379a0000000000000000000000000000000000000000000000000000000008152600401610fe090613895565b60405180910390fd5b8060076000610ff6611461565b73ffffffffffffffffffffffffffffffffffffffff1673ffffffffffffffffffffffffffffffffffffffff16815260200190815260200160002060008473ffffffffffffffffffffffffffffffffffffffff1673ffffffffffffffffffffffffffffffffffffffff16815260200190815260200160002060006101000a81548160ff0219169083151502179055508173ffffffffffffffffffffffffffffffffffffffff166110a3611461565b73ffffffffffffffffffffffffffffffffffffffff167f17307eab39ab6107e8899845ad3d59bd9653f200f220920489ca2b5937696c31836040516110e8919061371d565b60405180910390a35050565b6111056110ff611461565b83611522565b611144576040517f08c379a000000000000000000000000000000000000000000000000000000000815260040161113b90613a15565b60405180910390fd5b61115084848484611dd7565b50505050565b6060611161826113f5565b6111a0576040517f08c379a0000000000000000000000000000000000000000000000000000000008152600401611197906139d5565b60405180910390fd5b60006111aa611e33565b905060008151116111ca57604051806020016040528060008152506111f5565b806111d484611ec5565b6040516020016111e5929190613692565b6040516020818303038152906040525b915050919050565b600061121a60016000848152602001908152602001600020612072565b9050919050565b7f9f2df0fed2c77648de5860a4cc508cd0818c85b8b8a1ab4ceeef8d981c8956a681565b61124f8282612087565b611274816001600085815260200190815260200160002061194590919063ffffffff16565b505050565b7f65d7a28e3265b37a6474929f336521b332c1681b933f6cb9f3376673440d862a81565b6000600760008473ffffffffffffffffffffffffffffffffffffffff1673ffffffffffffffffffffffffffffffffffffffff16815260200190815260200160002060008373ffffffffffffffffffffffffffffffffffffffff1673ffffffffffffffffffffffffffffffffffffffff16815260200190815260200160002060009054906101000a900460ff16905092915050565b61133a81610c7f565b50565b61134782826120ed565b5050565b6000611373836000018373ffffffffffffffffffffffffffffffffffffffff1660001b6121cd565b905092915050565b60007f780e9d63000000000000000000000000000000000000000000000000000000007bffffffffffffffffffffffffffffffffffffffffffffffffffffffff1916827bffffffffffffffffffffffffffffffffffffffffffffffffffffffff191614806113ee57506113ed8261223d565b5b9050919050565b60008073ffffffffffffffffffffffffffffffffffffffff166004600084815260200190815260200160002060009054906101000a900473ffffffffffffffffffffffffffffffffffffffff1673ffffffffffffffffffffffffffffffffffffffff1614159050919050565b600033905090565b816006600083815260200190815260200160002060006101000a81548173ffffffffffffffffffffffffffffffffffffffff021916908373ffffffffffffffffffffffffffffffffffffffff160217905550808273ffffffffffffffffffffffffffffffffffffffff166114dc83610bcd565b73ffffffffffffffffffffffffffffffffffffffff167f8c5be1e5ebec7d5bd14f71427d1e84f3dd0314c0f7b2291e5b200ac8c7c3b92560405160405180910390a45050565b600061152d826113f5565b61156c576040517f08c379a0000000000000000000000000000000000000000000000000000000008152600401611563906138b5565b60405180910390fd5b600061157783610bcd565b90508073ffffffffffffffffffffffffffffffffffffffff168473ffffffffffffffffffffffffffffffffffffffff1614806115e657508373ffffffffffffffffffffffffffffffffffffffff166115ce846106f3565b73ffffffffffffffffffffffffffffffffffffffff16145b806115f757506115f6818561129d565b5b91505092915050565b8273ffffffffffffffffffffffffffffffffffffffff1661162082610bcd565b73ffffffffffffffffffffffffffffffffffffffff1614611676576040517f08c379a000000000000000000000000000000000000000000000000000000000815260040161166d906139b5565b60405180910390fd5b600073ffffffffffffffffffffffffffffffffffffffff168273ffffffffffffffffffffffffffffffffffffffff1614156116e6576040517f08c379a00000000000000000000000000000000000000000000000000000000081526004016116dd90613875565b60405180910390fd5b6116f183838361231f565b6116fc600082611469565b6001600560008573ffffffffffffffffffffffffffffffffffffffff1673ffffffffffffffffffffffffffffffffffffffff168152602001908152602001600020600082825461174c9190613c10565b925050819055506001600560008473ffffffffffffffffffffffffffffffffffffffff1673ffffffffffffffffffffffffffffffffffffffff16815260200190815260200160002060008282546117a39190613b89565b92505081905550816004600083815260200190815260200160002060006101000a81548173ffffffffffffffffffffffffffffffffffffffff021916908373ffffffffffffffffffffffffffffffffffffffff160217905550808273ffffffffffffffffffffffffffffffffffffffff168473ffffffffffffffffffffffffffffffffffffffff167fddf252ad1be2c89b69c2b068fc378daa952ba7f163c4a11628f55a4df523b3ef60405160405180910390a4505050565b611875611868836108fd565b611870611461565b610e70565b6118b4576040517f08c379a00000000000000000000000000000000000000000000000000000000081526004016118ab906137b5565b60405180910390fd5b6118be82826120ed565b5050565b6118ca611461565b73ffffffffffffffffffffffffffffffffffffffff168173ffffffffffffffffffffffffffffffffffffffff1614611937576040517f08c379a000000000000000000000000000000000000000000000000000000000815260040161192e90613ab5565b60405180910390fd5b611941828261232f565b5050565b600061196d836000018373ffffffffffffffffffffffffffffffffffffffff1660001b612410565b905092915050565b61197d610bb6565b6119bc576040517f08c379a00000000000000000000000000000000000000000000000000000000081526004016119b3906137d5565b60405180910390fd5b6000600c60006101000a81548160ff0219169083151502179055507f5db9ee0a495bf2e6ff9c91a7834c1ba4fdd244a5e8aa4e537bd38aeae4b073aa611a00611461565b604051611a0d91906136b6565b60405180910390a1565b6000611a2282610bcd565b9050611a308160008461231f565b611a3b600083611469565b6001600560008373ffffffffffffffffffffffffffffffffffffffff1673ffffffffffffffffffffffffffffffffffffffff1681526020019081526020016000206000828254611a8b9190613c10565b925050819055506004600083815260200190815260200160002060006101000a81549073ffffffffffffffffffffffffffffffffffffffff021916905581600073ffffffffffffffffffffffffffffffffffffffff168273ffffffffffffffffffffffffffffffffffffffff167fddf252ad1be2c89b69c2b068fc378daa952ba7f163c4a11628f55a4df523b3ef60405160405180910390a45050565b600081600001549050919050565b600073ffffffffffffffffffffffffffffffffffffffff168273ffffffffffffffffffffffffffffffffffffffff161415611ba6576040517f08c379a0000000000000000000000000000000000000000000000000000000008152600401611b9d90613975565b60405180910390fd5b611baf816113f5565b15611bef576040517f08c379a0000000000000000000000000000000000000000000000000000000008152600401611be690613835565b60405180910390fd5b611bfb6000838361231f565b6001600560008473ffffffffffffffffffffffffffffffffffffffff1673ffffffffffffffffffffffffffffffffffffffff1681526020019081526020016000206000828254611c4b9190613b89565b92505081905550816004600083815260200190815260200160002060006101000a81548173ffffffffffffffffffffffffffffffffffffffff021916908373ffffffffffffffffffffffffffffffffffffffff160217905550808273ffffffffffffffffffffffffffffffffffffffff16600073ffffffffffffffffffffffffffffffffffffffff167fddf252ad1be2c89b69c2b068fc378daa952ba7f163c4a11628f55a4df523b3ef60405160405180910390a45050565b6001816000016000828254019250508190555050565b611d22610bb6565b15611d62576040517f08c379a0000000000000000000000000000000000000000000000000000000008152600401611d59906138f5565b60405180910390fd5b6001600c60006101000a81548160ff0219169083151502179055507f62e78cea01bee320cd4e420270b5ea74000d11b0c9f74754ebdbfc544b05a258611da6611461565b604051611db391906136b6565b60405180910390a1565b6000611dcc836000018361259a565b60001c905092915050565b611de2848484611600565b611dee84848484612634565b611e2d576040517f08c379a0000000000000000000000000000000000000000000000000000000008152600401611e2490613815565b60405180910390fd5b50505050565b6060600e8054611e4290613d04565b80601f0160208091040260200160405190810160405280929190818152602001828054611e6e90613d04565b8015611ebb5780601f10611e9057610100808354040283529160200191611ebb565b820191906000526020600020905b815481529060010190602001808311611e9e57829003601f168201915b5050505050905090565b60606000821415611f0d576040518060400160405280600181526020017f3000000000000000000000000000000000000000000000000000000000000000815250905061206d565b600082905060005b60008214611f3f578080611f2890613d67565b915050600a82611f389190613bdf565b9150611f15565b60008167ffffffffffffffff811115611f81577f4e487b7100000000000000000000000000000000000000000000000000000000600052604160045260246000fd5b6040519080825280601f01601f191660200182016040528015611fb35781602001600182028036833780820191505090505b5090505b6000851461206657600182611fcc9190613c10565b9150600a85611fdb9190613db0565b6030611fe79190613b89565b60f81b818381518110612023577f4e487b7100000000000000000000000000000000000000000000000000000000600052603260045260246000fd5b60200101907effffffffffffffffffffffffffffffffffffffffffffffffffffffffffffff1916908160001a905350600a8561205f9190613bdf565b9450611fb7565b8093505050505b919050565b6000612080826000016127cb565b9050919050565b6120a0612093836108fd565b61209b611461565b610e70565b6120df576040517f08c379a00000000000000000000000000000000000000000000000000000000081526004016120d6906138d5565b60405180910390fd5b6120e9828261232f565b5050565b6120f78282610e70565b6121c957600160008084815260200190815260200160002060000160008373ffffffffffffffffffffffffffffffffffffffff1673ffffffffffffffffffffffffffffffffffffffff16815260200190815260200160002060006101000a81548160ff02191690831515021790555061216e611461565b73ffffffffffffffffffffffffffffffffffffffff168173ffffffffffffffffffffffffffffffffffffffff16837f2f8788117e7eff1d82e926ec794901d17c78024a50270940304540a733656f0d60405160405180910390a45b5050565b60006121d983836127dc565b612232578260000182908060018154018082558091505060019003906000526020600020016000909190919091505582600001805490508360010160008481526020019081526020016000208190555060019050612237565b600090505b92915050565b60007f80ac58cd000000000000000000000000000000000000000000000000000000007bffffffffffffffffffffffffffffffffffffffffffffffffffffffff1916827bffffffffffffffffffffffffffffffffffffffffffffffffffffffff1916148061230857507f5b5e139f000000000000000000000000000000000000000000000000000000007bffffffffffffffffffffffffffffffffffffffffffffffffffffffff1916827bffffffffffffffffffffffffffffffffffffffffffffffffffffffff1916145b806123185750612317826127ff565b5b9050919050565b61232a838383612879565b505050565b6123398282610e70565b1561240c57600080600084815260200190815260200160002060000160008373ffffffffffffffffffffffffffffffffffffffff1673ffffffffffffffffffffffffffffffffffffffff16815260200190815260200160002060006101000a81548160ff0219169083151502179055506123b1611461565b73ffffffffffffffffffffffffffffffffffffffff168173ffffffffffffffffffffffffffffffffffffffff16837ff6391f5c32d9c69d2a47ea670b442974b53935d1edc7fd64eb21e047a839171b60405160405180910390a45b5050565b6000808360010160008481526020019081526020016000205490506000811461258e5760006001826124429190613c10565b905060006001866000018054905061245a9190613c10565b9050600086600001828154811061249a577f4e487b7100000000000000000000000000000000000000000000000000000000600052603260045260246000fd5b90600052602060002001549050808760000184815481106124e4577f4e487b7100000000000000000000000000000000000000000000000000000000600052603260045260246000fd5b90600052602060002001819055506001836124ff9190613b89565b8760010160008381526020019081526020016000208190555086600001805480612552577f4e487b7100000000000000000000000000000000000000000000000000000000600052603160045260246000fd5b60019003818190600052602060002001600090559055866001016000878152602001908152602001600020600090556001945050505050612594565b60009150505b92915050565b6000818360000180549050116125e5576040517f08c379a00000000000000000000000000000000000000000000000000000000081526004016125dc90613775565b60405180910390fd5b826000018281548110612621577f4e487b7100000000000000000000000000000000000000000000000000000000600052603260045260246000fd5b9060005260206000200154905092915050565b60006126558473ffffffffffffffffffffffffffffffffffffffff166128d1565b156127be578373ffffffffffffffffffffffffffffffffffffffff1663150b7a0261267e611461565b8786866040518563ffffffff1660e01b81526004016126a094939291906136d1565b602060405180830381600087803b1580156126ba57600080fd5b505af19250505080156126eb57506040513d601f19601f820116820180604052508101906126e891906131b0565b60015b61276e573d806000811461271b576040519150601f19603f3d011682016040523d82523d6000602084013e612720565b606091505b50600081511415612766576040517f08c379a000000000000000000000000000000000000000000000000000000000815260040161275d90613815565b60405180910390fd5b805181602001fd5b63150b7a0260e01b7bffffffffffffffffffffffffffffffffffffffffffffffffffffffff1916817bffffffffffffffffffffffffffffffffffffffffffffffffffffffff1916149150506127c3565b600190505b949350505050565b600081600001805490509050919050565b600080836001016000848152602001908152602001600020541415905092915050565b60007f5a05180f000000000000000000000000000000000000000000000000000000007bffffffffffffffffffffffffffffffffffffffffffffffffffffffff1916827bffffffffffffffffffffffffffffffffffffffffffffffffffffffff191614806128725750612871826128e4565b5b9050919050565b61288483838361295e565b61288c610bb6565b156128cc576040517f08c379a00000000000000000000000000000000000000000000000000000000081526004016128c390613795565b60405180910390fd5b505050565b600080823b905060008111915050919050565b60007f7965db0b000000000000000000000000000000000000000000000000000000007bffffffffffffffffffffffffffffffffffffffffffffffffffffffff1916827bffffffffffffffffffffffffffffffffffffffffffffffffffffffff19161480612957575061295682612a72565b5b9050919050565b612969838383612adc565b600073ffffffffffffffffffffffffffffffffffffffff168373ffffffffffffffffffffffffffffffffffffffff1614156129ac576129a781612ae1565b6129eb565b8173ffffffffffffffffffffffffffffffffffffffff168373ffffffffffffffffffffffffffffffffffffffff16146129ea576129e98382612b2a565b5b5b600073ffffffffffffffffffffffffffffffffffffffff168273ffffffffffffffffffffffffffffffffffffffff161415612a2e57612a2981612c97565b612a6d565b8273ffffffffffffffffffffffffffffffffffffffff168273ffffffffffffffffffffffffffffffffffffffff1614612a6c57612a6b8282612dda565b5b5b505050565b60007f01ffc9a7000000000000000000000000000000000000000000000000000000007bffffffffffffffffffffffffffffffffffffffffffffffffffffffff1916827bffffffffffffffffffffffffffffffffffffffffffffffffffffffff1916149050919050565b505050565b600a80549050600b600083815260200190815260200160002081905550600a81908060018154018082558091505060019003906000526020600020016000909190919091505550565b60006001612b3784610d0f565b612b419190613c10565b9050600060096000848152602001908152602001600020549050818114612c26576000600860008673ffffffffffffffffffffffffffffffffffffffff1673ffffffffffffffffffffffffffffffffffffffff168152602001908152602001600020600084815260200190815260200160002054905080600860008773ffffffffffffffffffffffffffffffffffffffff1673ffffffffffffffffffffffffffffffffffffffff168152602001908152602001600020600084815260200190815260200160002081905550816009600083815260200190815260200160002081905550505b6009600084815260200190815260200160002060009055600860008573ffffffffffffffffffffffffffffffffffffffff1673ffffffffffffffffffffffffffffffffffffffff16815260200190815260200160002060008381526020019081526020016000206000905550505050565b60006001600a80549050612cab9190613c10565b90506000600b60008481526020019081526020016000205490506000600a8381548110612d01577f4e487b7100000000000000000000000000000000000000000000000000000000600052603260045260246000fd5b9060005260206000200154905080600a8381548110612d49577f4e487b7100000000000000000000000000000000000000000000000000000000600052603260045260246000fd5b906000526020600020018190555081600b600083815260200190815260200160002081905550600b600085815260200190815260200160002060009055600a805480612dbe577f4e487b7100000000000000000000000000000000000000000000000000000000600052603160045260246000fd5b6001900381819060005260206000200160009055905550505050565b6000612de583610d0f565b905081600860008573ffffffffffffffffffffffffffffffffffffffff1673ffffffffffffffffffffffffffffffffffffffff168152602001908152602001600020600083815260200190815260200160002081905550806009600084815260200190815260200160002081905550505050565b6000612e6c612e6784613b15565b613af0565b905082815260208101848484011115612e8457600080fd5b612e8f848285613cc2565b509392505050565b600081359050612ea681614645565b92915050565b600081359050612ebb8161465c565b92915050565b600081359050612ed081614673565b92915050565b600081359050612ee58161468a565b92915050565b600081519050612efa8161468a565b92915050565b600082601f830112612f1157600080fd5b8135612f21848260208601612e59565b91505092915050565b600081359050612f39816146a1565b92915050565b600060208284031215612f5157600080fd5b6000612f5f84828501612e97565b91505092915050565b60008060408385031215612f7b57600080fd5b6000612f8985828601612e97565b9250506020612f9a85828601612e97565b9150509250929050565b600080600060608486031215612fb957600080fd5b6000612fc786828701612e97565b9350506020612fd886828701612e97565b9250506040612fe986828701612f2a565b9150509250925092565b6000806000806080858703121561300957600080fd5b600061301787828801612e97565b945050602061302887828801612e97565b935050604061303987828801612f2a565b925050606085013567ffffffffffffffff81111561305657600080fd5b61306287828801612f00565b91505092959194509250565b6000806040838503121561308157600080fd5b600061308f85828601612e97565b92505060206130a085828601612eac565b9150509250929050565b600080604083850312156130bd57600080fd5b60006130cb85828601612e97565b92505060206130dc85828601612f2a565b9150509250929050565b6000602082840312156130f857600080fd5b600061310684828501612ec1565b91505092915050565b6000806040838503121561312257600080fd5b600061313085828601612ec1565b925050602061314185828601612e97565b9150509250929050565b6000806040838503121561315e57600080fd5b600061316c85828601612ec1565b925050602061317d85828601612f2a565b9150509250929050565b60006020828403121561319957600080fd5b60006131a784828501612ed6565b91505092915050565b6000602082840312156131c257600080fd5b60006131d084828501612eeb565b91505092915050565b6000602082840312156131eb57600080fd5b60006131f984828501612f2a565b91505092915050565b61320b81613c44565b82525050565b61321a81613c56565b82525050565b61322981613c62565b82525050565b600061323a82613b46565b6132448185613b5c565b9350613254818560208601613cd1565b61325d81613e9d565b840191505092915050565b600061327382613b51565b61327d8185613b6d565b935061328d818560208601613cd1565b61329681613e9d565b840191505092915050565b60006132ac82613b51565b6132b68185613b7e565b93506132c6818560208601613cd1565b80840191505092915050565b60006132df602283613b6d565b91506132ea82613eae565b604082019050919050565b6000613302602b83613b6d565b915061330d82613efd565b604082019050919050565b6000613325602f83613b6d565b915061333082613f4c565b604082019050919050565b6000613348601483613b6d565b915061335382613f9b565b602082019050919050565b600061336b602b83613b6d565b915061337682613fc4565b604082019050919050565b600061338e603283613b6d565b915061339982614013565b604082019050919050565b60006133b1601c83613b6d565b91506133bc82614062565b602082019050919050565b60006133d4603e83613b6d565b91506133df8261408b565b604082019050919050565b60006133f7602483613b6d565b9150613402826140da565b604082019050919050565b600061341a601983613b6d565b915061342582614129565b602082019050919050565b600061343d602c83613b6d565b915061344882614152565b604082019050919050565b6000613460603083613b6d565b915061346b826141a1565b604082019050919050565b6000613483601083613b6d565b915061348e826141f0565b602082019050919050565b60006134a6603883613b6d565b91506134b182614219565b604082019050919050565b60006134c9602a83613b6d565b91506134d482614268565b604082019050919050565b60006134ec602983613b6d565b91506134f7826142b7565b604082019050919050565b600061350f602083613b6d565b915061351a82614306565b602082019050919050565b6000613532602c83613b6d565b915061353d8261432f565b604082019050919050565b6000613555602983613b6d565b91506135608261437e565b604082019050919050565b6000613578602f83613b6d565b9150613583826143cd565b604082019050919050565b600061359b602183613b6d565b91506135a68261441c565b604082019050919050565b60006135be603183613b6d565b91506135c98261446b565b604082019050919050565b60006135e1602c83613b6d565b91506135ec826144ba565b604082019050919050565b6000613604603d83613b6d565b915061360f82614509565b604082019050919050565b6000613627603083613b6d565b915061363282614558565b604082019050919050565b600061364a604083613b6d565b9150613655826145a7565b604082019050919050565b600061366d602f83613b6d565b9150613678826145f6565b604082019050919050565b61368c81613cb8565b82525050565b600061369e82856132a1565b91506136aa82846132a1565b91508190509392505050565b60006020820190506136cb6000830184613202565b92915050565b60006080820190506136e66000830187613202565b6136f36020830186613202565b6137006040830185613683565b8181036060830152613712818461322f565b905095945050505050565b60006020820190506137326000830184613211565b92915050565b600060208201905061374d6000830184613220565b92915050565b6000602082019050818103600083015261376d8184613268565b905092915050565b6000602082019050818103600083015261378e816132d2565b9050919050565b600060208201905081810360008301526137ae816132f5565b9050919050565b600060208201905081810360008301526137ce81613318565b9050919050565b600060208201905081810360008301526137ee8161333b565b9050919050565b6000602082019050818103600083015261380e8161335e565b9050919050565b6000602082019050818103600083015261382e81613381565b9050919050565b6000602082019050818103600083015261384e816133a4565b9050919050565b6000602082019050818103600083015261386e816133c7565b9050919050565b6000602082019050818103600083015261388e816133ea565b9050919050565b600060208201905081810360008301526138ae8161340d565b9050919050565b600060208201905081810360008301526138ce81613430565b9050919050565b600060208201905081810360008301526138ee81613453565b9050919050565b6000602082019050818103600083015261390e81613476565b9050919050565b6000602082019050818103600083015261392e81613499565b9050919050565b6000602082019050818103600083015261394e816134bc565b9050919050565b6000602082019050818103600083015261396e816134df565b9050919050565b6000602082019050818103600083015261398e81613502565b9050919050565b600060208201905081810360008301526139ae81613525565b9050919050565b600060208201905081810360008301526139ce81613548565b9050919050565b600060208201905081810360008301526139ee8161356b565b9050919050565b60006020820190508181036000830152613a0e8161358e565b9050919050565b60006020820190508181036000830152613a2e816135b1565b9050919050565b60006020820190508181036000830152613a4e816135d4565b9050919050565b60006020820190508181036000830152613a6e816135f7565b9050919050565b60006020820190508181036000830152613a8e8161361a565b9050919050565b60006020820190508181036000830152613aae8161363d565b9050919050565b60006020820190508181036000830152613ace81613660565b9050919050565b6000602082019050613aea6000830184613683565b92915050565b6000613afa613b0b565b9050613b068282613d36565b919050565b6000604051905090565b600067ffffffffffffffff821115613b3057613b2f613e6e565b5b613b3982613e9d565b9050602081019050919050565b600081519050919050565b600081519050919050565b600082825260208201905092915050565b600082825260208201905092915050565b600081905092915050565b6000613b9482613cb8565b9150613b9f83613cb8565b9250827fffffffffffffffffffffffffffffffffffffffffffffffffffffffffffffffff03821115613bd457613bd3613de1565b5b828201905092915050565b6000613bea82613cb8565b9150613bf583613cb8565b925082613c0557613c04613e10565b5b828204905092915050565b6000613c1b82613cb8565b9150613c2683613cb8565b925082821015613c3957613c38613de1565b5b828203905092915050565b6000613c4f82613c98565b9050919050565b60008115159050919050565b6000819050919050565b60007fffffffff0000000000000000000000000000000000000000000000000000000082169050919050565b600073ffffffffffffffffffffffffffffffffffffffff82169050919050565b6000819050919050565b82818337600083830152505050565b60005b83811015613cef578082015181840152602081019050613cd4565b83811115613cfe576000848401525b50505050565b60006002820490506001821680613d1c57607f821691505b60208210811415613d3057613d2f613e3f565b5b50919050565b613d3f82613e9d565b810181811067ffffffffffffffff82111715613d5e57613d5d613e6e565b5b80604052505050565b6000613d7282613cb8565b91507fffffffffffffffffffffffffffffffffffffffffffffffffffffffffffffffff821415613da557613da4613de1565b5b600182019050919050565b6000613dbb82613cb8565b9150613dc683613cb8565b925082613dd657613dd5613e10565b5b828206905092915050565b7f4e487b7100000000000000000000000000000000000000000000000000000000600052601160045260246000fd5b7f4e487b7100000000000000000000000000000000000000000000000000000000600052601260045260246000fd5b7f4e487b7100000000000000000000000000000000000000000000000000000000600052602260045260246000fd5b7f4e487b7100000000000000000000000000000000000000000000000000000000600052604160045260246000fd5b6000601f19601f8301169050919050565b7f456e756d657261626c655365743a20696e646578206f7574206f6620626f756e60008201527f6473000000000000000000000000000000000000000000000000000000000000602082015250565b7f4552433732315061757361626c653a20746f6b656e207472616e73666572207760008201527f68696c6520706175736564000000000000000000000000000000000000000000602082015250565b7f416363657373436f6e74726f6c3a2073656e646572206d75737420626520616e60008201527f2061646d696e20746f206772616e740000000000000000000000000000000000602082015250565b7f5061757361626c653a206e6f7420706175736564000000000000000000000000600082015250565b7f455243373231456e756d657261626c653a206f776e657220696e646578206f7560008201527f74206f6620626f756e6473000000000000000000000000000000000000000000602082015250565b7f4552433732313a207472616e7366657220746f206e6f6e20455243373231526560008201527f63656976657220696d706c656d656e7465720000000000000000000000000000602082015250565b7f4552433732313a20746f6b656e20616c7265616479206d696e74656400000000600082015250565b7f4552433732315072657365744d696e7465725061757365724175746f49643a2060008201527f6d75737420686176652070617573657220726f6c6520746f2070617573650000602082015250565b7f4552433732313a207472616e7366657220746f20746865207a65726f2061646460008201527f7265737300000000000000000000000000000000000000000000000000000000602082015250565b7f4552433732313a20617070726f766520746f2063616c6c657200000000000000600082015250565b7f4552433732313a206f70657261746f7220717565727920666f72206e6f6e657860008201527f697374656e7420746f6b656e0000000000000000000000000000000000000000602082015250565b7f416363657373436f6e74726f6c3a2073656e646572206d75737420626520616e60008201527f2061646d696e20746f207265766f6b6500000000000000000000000000000000602082015250565b7f5061757361626c653a2070617573656400000000000000000000000000000000600082015250565b7f4552433732313a20617070726f76652063616c6c6572206973206e6f74206f7760008201527f6e6572206e6f7220617070726f76656420666f7220616c6c0000000000000000602082015250565b7f4552433732313a2062616c616e636520717565727920666f7220746865207a6560008201527f726f206164647265737300000000000000000000000000000000000000000000602082015250565b7f4552433732313a206f776e657220717565727920666f72206e6f6e657869737460008201527f656e7420746f6b656e0000000000000000000000000000000000000000000000602082015250565b7f4552433732313a206d696e7420746f20746865207a65726f2061646472657373600082015250565b7f4552433732313a20617070726f76656420717565727920666f72206e6f6e657860008201527f697374656e7420746f6b656e0000000000000000000000000000000000000000602082015250565b7f4552433732313a207472616e73666572206f6620746f6b656e2074686174206960008201527f73206e6f74206f776e0000000000000000000000000000000000000000000000602082015250565b7f4552433732314d657461646174613a2055524920717565727920666f72206e6f60008201527f6e6578697374656e7420746f6b656e0000000000000000000000000000000000602082015250565b7f4552433732313a20617070726f76616c20746f2063757272656e74206f776e6560008201527f7200000000000000000000000000000000000000000000000000000000000000602082015250565b7f4552433732313a207472616e736665722063616c6c6572206973206e6f74206f60008201527f776e6572206e6f7220617070726f766564000000000000000000000000000000602082015250565b7f455243373231456e756d657261626c653a20676c6f62616c20696e646578206f60008201527f7574206f6620626f756e64730000000000000000000000000000000000000000602082015250565b7f4552433732315072657365744d696e7465725061757365724175746f49643a2060008201527f6d7573742068617665206d696e74657220726f6c6520746f206d696e74000000602082015250565b7f4552433732314275726e61626c653a2063616c6c6572206973206e6f74206f7760008201527f6e6572206e6f7220617070726f76656400000000000000000000000000000000602082015250565b7f4552433732315072657365744d696e7465725061757365724175746f49643a2060008201527f6d75737420686176652070617573657220726f6c6520746f20756e7061757365602082015250565b7f416363657373436f6e74726f6c3a2063616e206f6e6c792072656e6f756e636560008201527f20726f6c657320666f722073656c660000000000000000000000000000000000602082015250565b61464e81613c44565b811461465957600080fd5b50565b61466581613c56565b811461467057600080fd5b50565b61467c81613c62565b811461468757600080fd5b50565b61469381613c6c565b811461469e57600080fd5b50565b6146aa81613cb8565b81146146b557600080fd5b5056fea26469706673582212207f4ba6b524bd12532bf1bc4d89fd208303ba2c291de4fedca7820f940db18d3564736f6c63430008040033",
  "immutableReferences": {},
  "source": "pragma solidity ^0.8.0;\r\n\r\nimport \"@openzeppelin/contracts/token/ERC721/presets/ERC721PresetMinterPauserAutoId.sol\";\r\n\r\n// import \"@openzeppelin/contracts/access/AccessControl.sol\";\r\n\r\ncontract ItemToken is ERC721PresetMinterPauserAutoId {\r\n    // bytes32 public constant override MINTER_ROLE = keccak256(\"MINTER_ROLE\");\r\n\r\n    constructor()\r\n        ERC721PresetMinterPauserAutoId(\"ItemToken\", \"IT\", \"http://localhost/\")\r\n    {}\r\n\r\n    function award(address to) public  {\r\n        // Check that the calling account has the minter role\r\n        // require(hasRole(MINTER_ROLE, msg.sender), \"Caller is not a minter\");\r\n        super.mint(to);\r\n    }\r\n}\r\n",
  "sourcePath": "D:/Work/Nick/blockchain/auction-example/auction-nft/contracts/ItemToken.sol",
  "compiler": {
    "name": "solc",
    "version": "0.8.4+commit.c7e474f2.Emscripten.clang"
  },
  "schemaVersion": "3.4.0",
  "updatedAt": "2021-05-16T20:35:30.377Z",
  "networkType": "ethereum",
  "devdoc": {
    "kind": "dev",
    "methods": {
      "approve(address,uint256)": {
        "details": "See {IERC721-approve}."
      },
      "balanceOf(address)": {
        "details": "See {IERC721-balanceOf}."
      },
      "burn(uint256)": {
        "details": "Burns `tokenId`. See {ERC721-_burn}. Requirements: - The caller must own `tokenId` or be an approved operator."
      },
      "getApproved(uint256)": {
        "details": "See {IERC721-getApproved}."
      },
      "getRoleAdmin(bytes32)": {
        "details": "Returns the admin role that controls `role`. See {grantRole} and {revokeRole}. To change a role's admin, use {_setRoleAdmin}."
      },
      "getRoleMember(bytes32,uint256)": {
        "details": "Returns one of the accounts that have `role`. `index` must be a value between 0 and {getRoleMemberCount}, non-inclusive. Role bearers are not sorted in any particular way, and their ordering may change at any point. WARNING: When using {getRoleMember} and {getRoleMemberCount}, make sure you perform all queries on the same block. See the following https://forum.openzeppelin.com/t/iterating-over-elements-on-enumerableset-in-openzeppelin-contracts/2296[forum post] for more information."
      },
      "getRoleMemberCount(bytes32)": {
        "details": "Returns the number of accounts that have `role`. Can be used together with {getRoleMember} to enumerate all bearers of a role."
      },
      "grantRole(bytes32,address)": {
        "details": "Overload {grantRole} to track enumerable memberships"
      },
      "hasRole(bytes32,address)": {
        "details": "Returns `true` if `account` has been granted `role`."
      },
      "isApprovedForAll(address,address)": {
        "details": "See {IERC721-isApprovedForAll}."
      },
      "mint(address)": {
        "details": "Creates a new token for `to`. Its token ID will be automatically assigned (and available on the emitted {IERC721-Transfer} event), and the token URI autogenerated based on the base URI passed at construction. See {ERC721-_mint}. Requirements: - the caller must have the `MINTER_ROLE`."
      },
      "name()": {
        "details": "See {IERC721Metadata-name}."
      },
      "ownerOf(uint256)": {
        "details": "See {IERC721-ownerOf}."
      },
      "pause()": {
        "details": "Pauses all token transfers. See {ERC721Pausable} and {Pausable-_pause}. Requirements: - the caller must have the `PAUSER_ROLE`."
      },
      "paused()": {
        "details": "Returns true if the contract is paused, and false otherwise."
      },
      "renounceRole(bytes32,address)": {
        "details": "Overload {renounceRole} to track enumerable memberships"
      },
      "revokeRole(bytes32,address)": {
        "details": "Overload {revokeRole} to track enumerable memberships"
      },
      "safeTransferFrom(address,address,uint256)": {
        "details": "See {IERC721-safeTransferFrom}."
      },
      "safeTransferFrom(address,address,uint256,bytes)": {
        "details": "See {IERC721-safeTransferFrom}."
      },
      "setApprovalForAll(address,bool)": {
        "details": "See {IERC721-setApprovalForAll}."
      },
      "supportsInterface(bytes4)": {
        "details": "See {IERC165-supportsInterface}."
      },
      "symbol()": {
        "details": "See {IERC721Metadata-symbol}."
      },
      "tokenByIndex(uint256)": {
        "details": "See {IERC721Enumerable-tokenByIndex}."
      },
      "tokenOfOwnerByIndex(address,uint256)": {
        "details": "See {IERC721Enumerable-tokenOfOwnerByIndex}."
      },
      "tokenURI(uint256)": {
        "details": "See {IERC721Metadata-tokenURI}."
      },
      "totalSupply()": {
        "details": "See {IERC721Enumerable-totalSupply}."
      },
      "transferFrom(address,address,uint256)": {
        "details": "See {IERC721-transferFrom}."
      },
      "unpause()": {
        "details": "Unpauses all token transfers. See {ERC721Pausable} and {Pausable-_unpause}. Requirements: - the caller must have the `PAUSER_ROLE`."
      }
    },
    "version": 1
  },
  "userdoc": {
    "kind": "user",
    "methods": {},
    "version": 1
  }
}