{
  "contractName": "ItemAuction",
  "abi": [
    {
      "inputs": [
        {
          "internalType": "contract IERC721",
          "name": "_nftContract",
          "type": "address"
        },
        {
          "internalType": "address payable",
          "name": "_recipientAddr",
          "type": "address"
        }
      ],
      "stateMutability": "nonpayable",
      "type": "constructor"
    },
    {
      "anonymous": false,
      "inputs": [
        {
          "indexed": false,
          "internalType": "uint256",
          "name": "_tokenId",
          "type": "uint256"
        },
        {
          "indexed": true,
          "internalType": "address",
          "name": "_bidder",
          "type": "address"
        },
        {
          "indexed": false,
          "internalType": "uint256",
          "name": "_amount",
          "type": "uint256"
        }
      ],
      "name": "AuctionBidden",
      "type": "event"
    },
    {
      "anonymous": false,
      "inputs": [
        {
          "indexed": false,
          "internalType": "uint256",
          "name": "_tokenId",
          "type": "uint256"
        },
        {
          "indexed": true,
          "internalType": "address",
          "name": "_seller",
          "type": "address"
        },
        {
          "indexed": false,
          "internalType": "uint256",
          "name": "_value",
          "type": "uint256"
        }
      ],
      "name": "AuctionCreated",
      "type": "event"
    },
    {
      "anonymous": false,
      "inputs": [
        {
          "indexed": false,
          "internalType": "uint256",
          "name": "_tokenId",
          "type": "uint256"
        },
        {
          "indexed": true,
          "internalType": "address",
          "name": "_awarder",
          "type": "address"
        }
      ],
      "name": "AuctionFinished",
      "type": "event"
    },
    {
      "inputs": [],
      "name": "bidLockTime",
      "outputs": [
        {
          "internalType": "uint256",
          "name": "",
          "type": "uint256"
        }
      ],
      "stateMutability": "view",
      "type": "function",
      "constant": true
    },
    {
      "inputs": [],
      "name": "nftContract",
      "outputs": [
        {
          "internalType": "contract IERC721",
          "name": "",
          "type": "address"
        }
      ],
      "stateMutability": "view",
      "type": "function",
      "constant": true
    },
    {
      "inputs": [],
      "name": "recipientAddr",
      "outputs": [
        {
          "internalType": "address payable",
          "name": "",
          "type": "address"
        }
      ],
      "stateMutability": "view",
      "type": "function",
      "constant": true
    },
    {
      "inputs": [
        {
          "internalType": "uint256",
          "name": "_tokenId",
          "type": "uint256"
        },
        {
          "internalType": "address payable",
          "name": "_seller",
          "type": "address"
        },
        {
          "internalType": "uint256",
          "name": "_price",
          "type": "uint256"
        }
      ],
      "name": "createAuction",
      "outputs": [
        {
          "internalType": "uint256",
          "name": "auctionId",
          "type": "uint256"
        }
      ],
      "stateMutability": "nonpayable",
      "type": "function"
    },
    {
      "inputs": [
        {
          "internalType": "uint256",
          "name": "_tokenId",
          "type": "uint256"
        }
      ],
      "name": "bid",
      "outputs": [],
      "stateMutability": "payable",
      "type": "function",
      "payable": true
    },
    {
      "inputs": [
        {
          "internalType": "uint256",
          "name": "_tokenId",
          "type": "uint256"
        }
      ],
      "name": "finish",
      "outputs": [],
      "stateMutability": "nonpayable",
      "type": "function"
    }
  ],
  "bytecode": "0x6080604052620151806005553480156200001857600080fd5b5060405162000f8e38038062000f8e83398181016040528101906200003e9190620000f5565b81600160006101000a81548173ffffffffffffffffffffffffffffffffffffffff021916908373ffffffffffffffffffffffffffffffffffffffff160217905550806000806101000a81548173ffffffffffffffffffffffffffffffffffffffff021916908373ffffffffffffffffffffffffffffffffffffffff1602179055505050620001c6565b600081519050620000d88162000192565b92915050565b600081519050620000ef81620001ac565b92915050565b600080604083850312156200010957600080fd5b60006200011985828601620000de565b92505060206200012c85828601620000c7565b9150509250929050565b6000620001438262000172565b9050919050565b6000620001578262000172565b9050919050565b60006200016b8262000136565b9050919050565b600073ffffffffffffffffffffffffffffffffffffffff82169050919050565b6200019d816200014a565b8114620001a957600080fd5b50565b620001b7816200015e565b8114620001c357600080fd5b50565b610db880620001d66000396000f3fe6080604052600436106100555760003560e01c8063029bae2e1461005a578063042a6e0e14610097578063454a2ab3146100c25780637f415661146100de578063d353a1cb14610109578063d56d229d14610132575b600080fd5b34801561006657600080fd5b50610081600480360381019061007c91906109c6565b61015d565b60405161008e9190610abe565b60405180910390f35b3480156100a357600080fd5b506100ac6102a7565b6040516100b99190610a51565b60405180910390f35b6100dc60048036038101906100d7919061099d565b6102cb565b005b3480156100ea57600080fd5b506100f361048f565b6040516101009190610abe565b60405180910390f35b34801561011557600080fd5b50610130600480360381019061012b919061099d565b610495565b005b34801561013e57600080fd5b5061014761094d565b6040516101549190610aa3565b60405180910390f35b60006002600081548092919061017290610cad565b9190505590508060046000868152602001908152602001600020819055506003600181600181540180825580915050039060005260206000209050506000600382815481106101ea577f4e487b7100000000000000000000000000000000000000000000000000000000600052603260045260246000fd5b90600052602060002090600602019050848160000181905550838160010160006101000a81548173ffffffffffffffffffffffffffffffffffffffff021916908373ffffffffffffffffffffffffffffffffffffffff1602179055508281600201819055508373ffffffffffffffffffffffffffffffffffffffff167f6ff530872708bbb51bad8ea341564e4ea039807ad1331f61ab4c906a66875daf8685604051610297929190610ad9565b60405180910390a2509392505050565b60008054906101000a900473ffffffffffffffffffffffffffffffffffffffff1681565b60006004600083815260200190815260200160002054905060006003828154811061031f577f4e487b7100000000000000000000000000000000000000000000000000000000600052603260045260246000fd5b906000526020600020906006020190508060020154341161033f57600080fd5b8060040160009054906101000a900460ff161561035b57600080fd5b3481600301600082825461036f9190610b02565b925050819055503481600201819055508060050160405180606001604052803373ffffffffffffffffffffffffffffffffffffffff16815260200134815260200142815250908060018154018082558091505060019003906000526020600020906003020160009091909190915060008201518160000160006101000a81548173ffffffffffffffffffffffffffffffffffffffff021916908373ffffffffffffffffffffffffffffffffffffffff160217905550602082015181600101556040820151816002015550503373ffffffffffffffffffffffffffffffffffffffff167fb62f50d9d9f0b0a87f07b6ff5bc8e86f58523aea5a31ad668d5b95f6908c01dd8434604051610482929190610ad9565b60405180910390a2505050565b60055481565b6000600460008381526020019081526020016000205490506000600382815481106104e9577f4e487b7100000000000000000000000000000000000000000000000000000000600052603260045260246000fd5b90600052602060002090600602019050600081600501600183600501805490506105139190610be3565b8154811061054a577f4e487b7100000000000000000000000000000000000000000000000000000000600052603260045260246000fd5b90600052602060002090600302016040518060600160405290816000820160009054906101000a900473ffffffffffffffffffffffffffffffffffffffff1673ffffffffffffffffffffffffffffffffffffffff1673ffffffffffffffffffffffffffffffffffffffff16815260200160018201548152602001600282015481525050905060005b600183600501805490506105e69190610be3565b81101561071357600083600501828154811061062b577f4e487b7100000000000000000000000000000000000000000000000000000000600052603260045260246000fd5b90600052602060002090600302016040518060600160405290816000820160009054906101000a900473ffffffffffffffffffffffffffffffffffffffff1673ffffffffffffffffffffffffffffffffffffffff1673ffffffffffffffffffffffffffffffffffffffff168152602001600182015481526020016002820154815250509050806000015173ffffffffffffffffffffffffffffffffffffffff166108fc82602001519081150290604051600060405180830381858888f193505050501580156106fe573d6000803e3d6000fd5b5050808061070b90610cad565b9150506105d2565b5060006103e86032836020015161072a9190610b89565b6107349190610b58565b90506000603283602001516107499190610be3565b905060008054906101000a900473ffffffffffffffffffffffffffffffffffffffff1673ffffffffffffffffffffffffffffffffffffffff166108fc839081150290604051600060405180830381858888f193505050501580156107b1573d6000803e3d6000fd5b508360010160009054906101000a900473ffffffffffffffffffffffffffffffffffffffff1673ffffffffffffffffffffffffffffffffffffffff166108fc829081150290604051600060405180830381858888f1935050505015801561081c573d6000803e3d6000fd5b50600160009054906101000a900473ffffffffffffffffffffffffffffffffffffffff1673ffffffffffffffffffffffffffffffffffffffff166323b872dd8560010160009054906101000a900473ffffffffffffffffffffffffffffffffffffffff168560000151896040518463ffffffff1660e01b81526004016108a493929190610a6c565b600060405180830381600087803b1580156108be57600080fd5b505af11580156108d2573d6000803e3d6000fd5b5050505060018460040160006101000a81548160ff021916908315150217905550826000015173ffffffffffffffffffffffffffffffffffffffff167f65a6b988aca0dea4d681867213cfbbea1b724ad3efb59897c3cf90f06c88c8728760405161093d9190610abe565b60405180910390a2505050505050565b600160009054906101000a900473ffffffffffffffffffffffffffffffffffffffff1681565b60008135905061098281610d54565b92915050565b60008135905061099781610d6b565b92915050565b6000602082840312156109af57600080fd5b60006109bd84828501610988565b91505092915050565b6000806000606084860312156109db57600080fd5b60006109e986828701610988565b93505060206109fa86828701610973565b9250506040610a0b86828701610988565b9150509250925092565b610a1e81610c53565b82525050565b610a2d81610c17565b82525050565b610a3c81610c65565b82525050565b610a4b81610c49565b82525050565b6000602082019050610a666000830184610a24565b92915050565b6000606082019050610a816000830186610a15565b610a8e6020830185610a15565b610a9b6040830184610a42565b949350505050565b6000602082019050610ab86000830184610a33565b92915050565b6000602082019050610ad36000830184610a42565b92915050565b6000604082019050610aee6000830185610a42565b610afb6020830184610a42565b9392505050565b6000610b0d82610c49565b9150610b1883610c49565b9250827fffffffffffffffffffffffffffffffffffffffffffffffffffffffffffffffff03821115610b4d57610b4c610cf6565b5b828201905092915050565b6000610b6382610c49565b9150610b6e83610c49565b925082610b7e57610b7d610d25565b5b828204905092915050565b6000610b9482610c49565b9150610b9f83610c49565b9250817fffffffffffffffffffffffffffffffffffffffffffffffffffffffffffffffff0483118215151615610bd857610bd7610cf6565b5b828202905092915050565b6000610bee82610c49565b9150610bf983610c49565b925082821015610c0c57610c0b610cf6565b5b828203905092915050565b6000610c2282610c29565b9050919050565b600073ffffffffffffffffffffffffffffffffffffffff82169050919050565b6000819050919050565b6000610c5e82610c89565b9050919050565b6000610c7082610c77565b9050919050565b6000610c8282610c29565b9050919050565b6000610c9482610c9b565b9050919050565b6000610ca682610c29565b9050919050565b6000610cb882610c49565b91507fffffffffffffffffffffffffffffffffffffffffffffffffffffffffffffffff821415610ceb57610cea610cf6565b5b600182019050919050565b7f4e487b7100000000000000000000000000000000000000000000000000000000600052601160045260246000fd5b7f4e487b7100000000000000000000000000000000000000000000000000000000600052601260045260246000fd5b610d5d81610c17565b8114610d6857600080fd5b50565b610d7481610c49565b8114610d7f57600080fd5b5056fea2646970667358221220bd2f2d341ecf2f4b77a48205686b88ced85e6623878e3e16255c30499dc569ab64736f6c63430008040033",
  "immutableReferences": {},
  "source": "pragma solidity ^0.8.0;\r\n\r\nimport \"@openzeppelin/contracts/token/ERC721/ERC721.sol\";\r\n\r\ncontract ItemAuction {\r\n    struct Bidder {\r\n        address payable addr;\r\n        uint256 amount;\r\n        uint256 bidAt;\r\n    }\r\n\r\n    struct Auction {\r\n        uint256 tokenId;\r\n        address payable seller;\r\n        uint256 price;\r\n        uint256 amount;\r\n        bool finished;\r\n        Bidder[] bidders;\r\n    }\r\n\r\n    address payable public recipientAddr;\r\n    IERC721 public nftContract;\r\n\r\n    uint256 numAuctions;\r\n    Auction[] auctions;\r\n\r\n    mapping(uint256 => uint256) tokenIdToAuctionId;\r\n\r\n    uint256 public bidLockTime = 1 days;\r\n\r\n    uint256 constant platformFee = 50;\r\n    uint256 constant feePercentage = 1000;\r\n\r\n    constructor(IERC721 _nftContract, address payable _recipientAddr) {\r\n        nftContract = _nftContract;\r\n        recipientAddr = _recipientAddr;\r\n    }\r\n\r\n    event AuctionCreated(\r\n        uint256 _tokenId,\r\n        address indexed _seller,\r\n        uint256 _value\r\n    );\r\n\r\n    function createAuction(\r\n        uint256 _tokenId,\r\n        address payable _seller,\r\n        uint256 _price\r\n    ) public returns (uint256 auctionId) {\r\n        auctionId = numAuctions++;\r\n        tokenIdToAuctionId[_tokenId] = auctionId;\r\n        auctions.push();\r\n        Auction storage auction = auctions[auctionId];\r\n        auction.tokenId = _tokenId;\r\n        auction.seller = _seller;\r\n        auction.price = _price;\r\n        emit AuctionCreated(_tokenId, _seller, _price);\r\n    }\r\n\r\n    event AuctionBidden(\r\n        uint256 _tokenId,\r\n        address indexed _bidder,\r\n        uint256 _amount\r\n    );\r\n\r\n    function bid(uint256 _tokenId) public payable {\r\n        uint256 auctionId = tokenIdToAuctionId[_tokenId];\r\n        Auction storage auction = auctions[auctionId];\r\n        // require(auction.seller != address(0));\r\n        require(msg.value > auction.price);\r\n        require(!auction.finished);\r\n        auction.amount += msg.value;\r\n        auction.price = msg.value;\r\n        auction.bidders.push(\r\n            Bidder(payable(msg.sender), msg.value, block.timestamp)\r\n        );\r\n        emit AuctionBidden(_tokenId, msg.sender, msg.value);\r\n    }\r\n\r\n    event AuctionFinished(uint256 _tokenId, address indexed _awarder);\r\n\r\n    function finish(uint256 _tokenId) public {\r\n        uint256 auctionId = tokenIdToAuctionId[_tokenId];\r\n        Auction storage auction = auctions[auctionId];\r\n        Bidder memory awarder = auction.bidders[auction.bidders.length - 1];\r\n        for (uint256 i = 0; i < auction.bidders.length - 1; i++) {\r\n            Bidder memory bidder = auction.bidders[i];\r\n            bidder.addr.transfer(bidder.amount);\r\n        }\r\n        uint256 receipientAmount =\r\n            (awarder.amount * platformFee) / feePercentage;\r\n        uint256 sellerAmount = awarder.amount - platformFee;\r\n        recipientAddr.transfer(receipientAmount);\r\n        auction.seller.transfer(sellerAmount);\r\n        nftContract.transferFrom(auction.seller, awarder.addr, _tokenId);\r\n        auction.finished = true;\r\n        emit AuctionFinished(_tokenId, awarder.addr);\r\n    }\r\n}\r\n",
  "sourcePath": "D:/Work/Nick/blockchain/auction-example/auction-nft/contracts/ItemAuction.sol",
  "compiler": {
    "name": "solc",
    "version": "0.8.4+commit.c7e474f2.Emscripten.clang"
  },
  "schemaVersion": "3.4.0",
  "updatedAt": "2021-05-16T20:35:30.391Z",
  "networkType": "ethereum",
  "devdoc": {
    "kind": "dev",
    "methods": {},
    "version": 1
  },
  "userdoc": {
    "kind": "user",
    "methods": {},
    "version": 1
  }
}